{
  "contractName": "PlayableList",
  "abi": [
    {
      "anonymous": false,
      "inputs": [
        {
          "indexed": false,
          "internalType": "string",
          "name": "data",
          "type": "string"
        }
      ],
      "name": "Print",
      "type": "event"
    },
    {
      "anonymous": false,
      "inputs": [
        {
          "indexed": false,
          "internalType": "address",
          "name": "data",
          "type": "address"
        }
      ],
      "name": "Print",
      "type": "event"
    },
    {
      "anonymous": false,
      "inputs": [
        {
          "indexed": false,
          "internalType": "uint256",
          "name": "data",
          "type": "uint256"
        }
      ],
      "name": "Print",
      "type": "event"
    },
    {
      "anonymous": false,
      "inputs": [
        {
          "indexed": false,
          "internalType": "address",
          "name": "playlistID",
          "type": "address"
        },
        {
          "indexed": false,
          "internalType": "uint256",
          "name": "songID",
          "type": "uint256"
        },
        {
          "indexed": false,
          "internalType": "uint256",
          "name": "weight",
          "type": "uint256"
        },
        {
          "indexed": false,
          "internalType": "uint256",
          "name": "entryCost",
          "type": "uint256"
        },
        {
          "indexed": false,
          "internalType": "string",
          "name": "trackURI",
          "type": "string"
        }
      ],
      "name": "playlistAltered",
      "type": "event"
    },
    {
      "constant": true,
      "inputs": [],
      "name": "version",
      "outputs": [
        {
          "internalType": "string",
          "name": "",
          "type": "string"
        }
      ],
      "payable": false,
      "stateMutability": "view",
      "type": "function"
    },
    {
      "constant": false,
      "inputs": [],
      "name": "setEntryCost",
      "outputs": [],
      "payable": true,
      "stateMutability": "payable",
      "type": "function"
    },
    {
      "constant": true,
      "inputs": [
        {
          "internalType": "address",
          "name": "listID",
          "type": "address"
        }
      ],
      "name": "getEntryCost",
      "outputs": [
        {
          "internalType": "uint256",
          "name": "",
          "type": "uint256"
        }
      ],
      "payable": false,
      "stateMutability": "view",
      "type": "function"
    },
    {
      "constant": false,
      "inputs": [
        {
          "internalType": "string",
          "name": "albumURI",
          "type": "string"
        },
        {
          "internalType": "string",
          "name": "albumImage",
          "type": "string"
        },
        {
          "internalType": "uint256",
          "name": "trackIndex",
          "type": "uint256"
        },
        {
          "internalType": "string",
          "name": "trackURI",
          "type": "string"
        },
        {
          "internalType": "string",
          "name": "trackName",
          "type": "string"
        },
        {
          "internalType": "string",
          "name": "artist",
          "type": "string"
        },
        {
          "internalType": "string",
          "name": "misc",
          "type": "string"
        },
        {
          "internalType": "address payable",
          "name": "listID",
          "type": "address"
        }
      ],
      "name": "AddSong",
      "outputs": [],
      "payable": true,
      "stateMutability": "payable",
      "type": "function"
    },
    {
      "constant": false,
      "inputs": [
        {
          "internalType": "address payable",
          "name": "listID",
          "type": "address"
        },
        {
          "internalType": "uint256",
          "name": "SongID",
          "type": "uint256"
        }
      ],
      "name": "updateWeight",
      "outputs": [],
      "payable": true,
      "stateMutability": "payable",
      "type": "function"
    },
    {
      "constant": true,
      "inputs": [
        {
          "internalType": "address",
          "name": "listID",
          "type": "address"
        },
        {
          "internalType": "uint256",
          "name": "givenSongID",
          "type": "uint256"
        }
      ],
      "name": "Get",
      "outputs": [
        {
          "internalType": "string",
          "name": "",
          "type": "string"
        }
      ],
      "payable": false,
      "stateMutability": "view",
      "type": "function"
    },
    {
      "constant": true,
      "inputs": [
        {
          "internalType": "address",
          "name": "listID",
          "type": "address"
        }
      ],
      "name": "GetAll",
      "outputs": [
        {
          "internalType": "string",
          "name": "",
          "type": "string"
        }
      ],
      "payable": false,
      "stateMutability": "view",
      "type": "function"
    },
    {
      "constant": false,
      "inputs": [
        {
          "internalType": "address payable",
          "name": "listID",
          "type": "address"
        },
        {
          "internalType": "uint256",
          "name": "givenSongID",
          "type": "uint256"
        }
      ],
      "name": "Remove",
      "outputs": [],
      "payable": true,
      "stateMutability": "payable",
      "type": "function"
    }
  ],
  "bytecode": "0x608060405233600160006101000a81548173ffffffffffffffffffffffffffffffffffffffff021916908373ffffffffffffffffffffffffffffffffffffffff1602179055506040518060400160405280600381526020017f302e3200000000000000000000000000000000000000000000000000000000008152506002908051906020019062000092929190620000a7565b50348015620000a057600080fd5b5062000156565b828054600181600116156101000203166002900490600052602060002090601f016020900481019282601f10620000ea57805160ff19168380011785556200011b565b828001600101855582156200011b579182015b828111156200011a578251825591602001919060010190620000fd565b5b5090506200012a91906200012e565b5090565b6200015391905b808211156200014f57600081600090555060010162000135565b5090565b90565b61271b80620001666000396000f3fe60806040526004361061007b5760003560e01c806372454e581161004e57806372454e58146106185780638e2f5fcc146106225780639776e94b14610670578063bde7a70c146106be5761007b565b8063490c148c1461008057806354fd4d501461014a5780635bd3c09e146101da5780636a833cc0146105b3575b600080fd5b34801561008c57600080fd5b506100cf600480360360208110156100a357600080fd5b81019080803573ffffffffffffffffffffffffffffffffffffffff169060200190929190505050610792565b6040518080602001828103825283818151815260200191508051906020019080838360005b8381101561010f5780820151818401526020810190506100f4565b50505050905090810190601f16801561013c5780820380516001836020036101000a031916815260200191505b509250505060405180910390f35b34801561015657600080fd5b5061015f610ad7565b6040518080602001828103825283818151815260200191508051906020019080838360005b8381101561019f578082015181840152602081019050610184565b50505050905090810190601f1680156101cc5780820380516001836020036101000a031916815260200191505b509250505060405180910390f35b6105b160048036036101008110156101f157600080fd5b810190808035906020019064010000000081111561020e57600080fd5b82018360208201111561022057600080fd5b8035906020019184600183028401116401000000008311171561024257600080fd5b91908080601f016020809104026020016040519081016040528093929190818152602001838380828437600081840152601f19601f820116905080830192505050505050509192919290803590602001906401000000008111156102a557600080fd5b8201836020820111156102b757600080fd5b803590602001918460018302840111640100000000831117156102d957600080fd5b91908080601f016020809104026020016040519081016040528093929190818152602001838380828437600081840152601f19601f820116905080830192505050505050509192919290803590602001909291908035906020019064010000000081111561034657600080fd5b82018360208201111561035857600080fd5b8035906020019184600183028401116401000000008311171561037a57600080fd5b91908080601f016020809104026020016040519081016040528093929190818152602001838380828437600081840152601f19601f820116905080830192505050505050509192919290803590602001906401000000008111156103dd57600080fd5b8201836020820111156103ef57600080fd5b8035906020019184600183028401116401000000008311171561041157600080fd5b91908080601f016020809104026020016040519081016040528093929190818152602001838380828437600081840152601f19601f8201169050808301925050505050505091929192908035906020019064010000000081111561047457600080fd5b82018360208201111561048657600080fd5b803590602001918460018302840111640100000000831117156104a857600080fd5b91908080601f016020809104026020016040519081016040528093929190818152602001838380828437600081840152601f19601f8201169050808301925050505050505091929192908035906020019064010000000081111561050b57600080fd5b82018360208201111561051d57600080fd5b8035906020019184600183028401116401000000008311171561053f57600080fd5b91908080601f016020809104026020016040519081016040528093929190818152602001838380828437600081840152601f19601f820116905080830192505050505050509192919290803573ffffffffffffffffffffffffffffffffffffffff169060200190929190505050610b75565b005b3480156105bf57600080fd5b50610602600480360360208110156105d657600080fd5b81019080803573ffffffffffffffffffffffffffffffffffffffff16906020019092919050505061102a565b6040518082815260200191505060405180910390f35b610620611075565b005b61066e6004803603604081101561063857600080fd5b81019080803573ffffffffffffffffffffffffffffffffffffffff16906020019092919080359060200190929190505050611170565b005b6106bc6004803603604081101561068657600080fd5b81019080803573ffffffffffffffffffffffffffffffffffffffff16906020019092919080359060200190929190505050611af2565b005b3480156106ca57600080fd5b50610717600480360360408110156106e157600080fd5b81019080803573ffffffffffffffffffffffffffffffffffffffff16906020019092919080359060200190929190505050611c15565b6040518080602001828103825283818151815260200191508051906020019080838360005b8381101561075757808201518184015260208101905061073c565b50505050905090810190601f1680156107845780820380516001836020036101000a031916815260200191505b509250505060405180910390f35b6060806040518060400160405280600181526020017f5b0000000000000000000000000000000000000000000000000000000000000081525090506000600190505b6000808573ffffffffffffffffffffffffffffffffffffffff1673ffffffffffffffffffffffffffffffffffffffff168152602001908152602001600020600101805490508111610a38576000808573ffffffffffffffffffffffffffffffffffffffff1673ffffffffffffffffffffffffffffffffffffffff1681526020019081526020016000206001018054905081141561093957816108768583611c15565b6040516020018083805190602001908083835b602083106108ac5780518252602082019150602081019050602083039250610889565b6001836020036101000a03801982511681845116808217855250505050505090500182805190602001908083835b602083106108fd57805182526020820191506020810190506020830392506108da565b6001836020036101000a038019825116818451168082178552505050505050905001925050506040516020818303038152906040529150610a2b565b816109448583611c15565b6040516020018083805190602001908083835b6020831061097a5780518252602082019150602081019050602083039250610957565b6001836020036101000a03801982511681845116808217855250505050505090500182805190602001908083835b602083106109cb57805182526020820191506020810190506020830392506109a8565b6001836020036101000a038019825116818451168082178552505050505050905001807f2c200000000000000000000000000000000000000000000000000000000000008152506002019250505060405160208183030381529060405291505b80806001019150506107d4565b50806040516020018082805190602001908083835b60208310610a705780518252602082019150602081019050602083039250610a4d565b6001836020036101000a038019825116818451168082178552505050505050905001807f5d00000000000000000000000000000000000000000000000000000000000000815250600101915050604051602081830303815290604052905080915050919050565b60028054600181600116156101000203166002900480601f016020809104026020016040519081016040528092919081815260200182805460018160011615610100020316600290048015610b6d5780601f10610b4257610100808354040283529160200191610b6d565b820191906000526020600020905b815481529060010190602001808311610b5057829003601f168201915b505050505081565b610b8e856040518060200160405280600081525061230a565b15610b9857600080fd5b6000861415610ba657600080fd5b600073ffffffffffffffffffffffffffffffffffffffff168173ffffffffffffffffffffffffffffffffffffffff161415610be057600080fd5b6000803373ffffffffffffffffffffffffffffffffffffffff1673ffffffffffffffffffffffffffffffffffffffff16815260200190815260200160002060000154341015610c2e57600080fd5b60008060008373ffffffffffffffffffffffffffffffffffffffff1673ffffffffffffffffffffffffffffffffffffffff168152602001908152602001600020600101905060008060008473ffffffffffffffffffffffffffffffffffffffff1673ffffffffffffffffffffffffffffffffffffffff16815260200190815260200160002060000154905081604051806101200160405280600185805490500181526020013481526020018c81526020018b81526020018a8152602001898152602001888152602001878152602001868152509080600181540180825580915050906001820390600052602060002090600902016000909192909190915060008201518160000155602082015181600101556040820151816002019080519060200190610d5c929190612526565b506060820151816003019080519060200190610d79929190612526565b506080820151816004015560a0820151816005019080519060200190610da0929190612526565b5060c0820151816006019080519060200190610dbd929190612526565b5060e0820151816007019080519060200190610dda929190612526565b50610100820151816008019080519060200190610df8929190612526565b505050506000341115610eee5760003490506000829050828203915060028281610e1e57fe5b04810190506000811115610e74578473ffffffffffffffffffffffffffffffffffffffff166108fc829081150290604051600060405180830381858888f19350505050158015610e72573d6000803e3d6000fd5b505b60008134031115610eeb57600160009054906101000a900473ffffffffffffffffffffffffffffffffffffffff1673ffffffffffffffffffffffffffffffffffffffff166108fc8234039081150290604051600060405180830381858888f19350505050158015610ee9573d6000803e3d6000fd5b505b50505b7ff80bdda719efdc262df7614283e05778ea4ab5af71553ce421b2365be42a4598836001848054905001346000808873ffffffffffffffffffffffffffffffffffffffff1673ffffffffffffffffffffffffffffffffffffffff168152602001908152602001600020600001548b604051808673ffffffffffffffffffffffffffffffffffffffff1673ffffffffffffffffffffffffffffffffffffffff16815260200185815260200184815260200183815260200180602001828103825283818151815260200191508051906020019080838360005b83811015610fe0578082015181840152602081019050610fc5565b50505050905090810190601f16801561100d5780820380516001836020036101000a031916815260200191505b50965050505050505060405180910390a150505050505050505050565b60008060008373ffffffffffffffffffffffffffffffffffffffff1673ffffffffffffffffffffffffffffffffffffffff168152602001908152602001600020600001549050919050565b346000803373ffffffffffffffffffffffffffffffffffffffff1673ffffffffffffffffffffffffffffffffffffffff16815260200190815260200160002060000154101561112857600160009054906101000a900473ffffffffffffffffffffffffffffffffffffffff1673ffffffffffffffffffffffffffffffffffffffff166108fc349081150290604051600060405180830381858888f19350505050158015611126573d6000803e3d6000fd5b505b346000803373ffffffffffffffffffffffffffffffffffffffff1673ffffffffffffffffffffffffffffffffffffffff16815260200190815260200160002060000181905550565b600073ffffffffffffffffffffffffffffffffffffffff168273ffffffffffffffffffffffffffffffffffffffff1614156111aa57600080fd5b60006001820390506111ba6125a6565b6000808573ffffffffffffffffffffffffffffffffffffffff1673ffffffffffffffffffffffffffffffffffffffff168152602001908152602001600020600101828154811061120657fe5b9060005260206000209060090201604051806101200160405290816000820154815260200160018201548152602001600282018054600181600116156101000203166002900480601f0160208091040260200160405190810160405280929190818152602001828054600181600116156101000203166002900480156112cd5780601f106112a2576101008083540402835291602001916112cd565b820191906000526020600020905b8154815290600101906020018083116112b057829003601f168201915b50505050508152602001600382018054600181600116156101000203166002900480601f01602080910402602001604051908101604052809291908181526020018280546001816001161561010002031660029004801561136f5780601f106113445761010080835404028352916020019161136f565b820191906000526020600020905b81548152906001019060200180831161135257829003601f168201915b5050505050815260200160048201548152602001600582018054600181600116156101000203166002900480601f01602080910402602001604051908101604052809291908181526020018280546001816001161561010002031660029004801561141b5780601f106113f05761010080835404028352916020019161141b565b820191906000526020600020905b8154815290600101906020018083116113fe57829003601f168201915b50505050508152602001600682018054600181600116156101000203166002900480601f0160208091040260200160405190810160405280929190818152602001828054600181600116156101000203166002900480156114bd5780601f10611492576101008083540402835291602001916114bd565b820191906000526020600020905b8154815290600101906020018083116114a057829003601f168201915b50505050508152602001600782018054600181600116156101000203166002900480601f01602080910402602001604051908101604052809291908181526020018280546001816001161561010002031660029004801561155f5780601f106115345761010080835404028352916020019161155f565b820191906000526020600020905b81548152906001019060200180831161154257829003601f168201915b50505050508152602001600882018054600181600116156101000203166002900480601f0160208091040260200160405190810160405280929190818152602001828054600181600116156101000203166002900480156116015780601f106115d657610100808354040283529160200191611601565b820191906000526020600020905b8154815290600101906020018083116115e457829003601f168201915b505050505081525050905060008060008673ffffffffffffffffffffffffffffffffffffffff1673ffffffffffffffffffffffffffffffffffffffff168152602001908152602001600020600101905060008390505b60018280549050038110156117e05781600182018154811061167557fe5b906000526020600020906009020182828154811061168f57fe5b90600052602060002090600902016000820154816000015560018201548160010155600282018160020190805460018160011615610100020316600290046116d89291906125f2565b50600382018160030190805460018160011615610100020316600290046117009291906125f2565b5060048201548160040155600582018160050190805460018160011615610100020316600290046117329291906125f2565b506006820181600601908054600181600116156101000203166002900461175a9291906125f2565b50600782018160070190805460018160011615610100020316600290046117829291906125f2565b50600882018160080190805460018160011615610100020316600290046117aa9291906125f2565b50905050600181018282815481106117be57fe5b9060005260206000209060090201600001819055508080600101915050611657565b50808054806117eb57fe5b600190038181906000526020600020906009020160008082016000905560018201600090556002820160006118209190612679565b6003820160006118309190612679565b60048201600090556005820160006118489190612679565b6006820160006118589190612679565b6007820160006118689190612679565b6008820160006118789190612679565b50509055348260200151116119b757600034905060008060008873ffffffffffffffffffffffffffffffffffffffff1673ffffffffffffffffffffffffffffffffffffffff16815260200190815260200160002060000154905060008190508183039250600283816118e657fe5b0481019050600081111561193c578773ffffffffffffffffffffffffffffffffffffffff166108fc829081150290604051600060405180830381858888f1935050505015801561193a573d6000803e3d6000fd5b505b600081340311156119b357600160009054906101000a900473ffffffffffffffffffffffffffffffffffffffff1673ffffffffffffffffffffffffffffffffffffffff166108fc8234039081150290604051600060405180830381858888f193505050501580156119b1573d6000803e3d6000fd5b505b5050505b7ff80bdda719efdc262df7614283e05778ea4ab5af71553ce421b2365be42a4598856001838054905001346000808a73ffffffffffffffffffffffffffffffffffffffff1673ffffffffffffffffffffffffffffffffffffffff168152602001908152602001600020600001548660a00151604051808673ffffffffffffffffffffffffffffffffffffffff1673ffffffffffffffffffffffffffffffffffffffff16815260200185815260200184815260200183815260200180602001828103825283818151815260200191508051906020019080838360005b83811015611aad578082015181840152602081019050611a92565b50505050905090810190601f168015611ada5780820380516001836020036101000a031916815260200191505b50965050505050505060405180910390a15050505050565b600073ffffffffffffffffffffffffffffffffffffffff168273ffffffffffffffffffffffffffffffffffffffff161415611b2c57600080fd5b6000811415611b3a57600080fd5b60008060008473ffffffffffffffffffffffffffffffffffffffff1673ffffffffffffffffffffffffffffffffffffffff1681526020019081526020016000206001016001830381548110611b8b57fe5b90600052602060002090600902016000015414611c1157346000808473ffffffffffffffffffffffffffffffffffffffff1673ffffffffffffffffffffffffffffffffffffffff1681526020019081526020016000206001016001830381548110611bf257fe5b9060005260206000209060090201600101600082825401925050819055505b5050565b606060008060008573ffffffffffffffffffffffffffffffffffffffff1673ffffffffffffffffffffffffffffffffffffffff1681526020019081526020016000206001016001840381548110611c6857fe5b90600052602060002090600902019050611c8581600001546123f9565b611c9282600101546123f9565b8260020183600301611ca785600401546123f9565b8560050186600601876007018860080160405160200180807f7b20000000000000000000000000000000000000000000000000000000000000815250600201807f22736f6e674944223a00000000000000000000000000000000000000000000008152506009018a805190602001908083835b60208310611d3d5780518252602082019150602081019050602083039250611d1a565b6001836020036101000a038019825116818451168082178552505050505050905001807f2c20000000000000000000000000000000000000000000000000000000000000815250600201807f22776569676874223a000000000000000000000000000000000000000000000081525060090189805190602001908083835b60208310611dde5780518252602082019150602081019050602083039250611dbb565b6001836020036101000a038019825116818451168082178552505050505050905001807f2c20000000000000000000000000000000000000000000000000000000000000815250600201807f22616c62756d555249223a220000000000000000000000000000000000000000815250600c0188805460018160011615610100020316600290048015611ea75780601f10611e85576101008083540402835291820191611ea7565b820191906000526020600020905b815481529060010190602001808311611e93575b5050807f222c200000000000000000000000000000000000000000000000000000000000815250600301807f22616c62756d496d616765223a22000000000000000000000000000000000000815250600e0187805460018160011615610100020316600290048015611f505780601f10611f2e576101008083540402835291820191611f50565b820191906000526020600020905b815481529060010190602001808311611f3c575b5050807f222c200000000000000000000000000000000000000000000000000000000000815250600301807f22747261636b496e646578223a00000000000000000000000000000000000000815250600d0186805190602001908083835b60208310611fd15780518252602082019150602081019050602083039250611fae565b6001836020036101000a038019825116818451168082178552505050505050905001807f2c20000000000000000000000000000000000000000000000000000000000000815250600201807f22747261636b555249223a220000000000000000000000000000000000000000815250600c018580546001816001161561010002031660029004801561209a5780601f1061207857610100808354040283529182019161209a565b820191906000526020600020905b815481529060010190602001808311612086575b5050807f222c200000000000000000000000000000000000000000000000000000000000815250600301807f22747261636b4e616d65223a2200000000000000000000000000000000000000815250600d01848054600181600116156101000203166002900480156121435780601f10612121576101008083540402835291820191612143565b820191906000526020600020905b81548152906001019060200180831161212f575b5050807f222c200000000000000000000000000000000000000000000000000000000000815250600301807f22617274697374223a2200000000000000000000000000000000000000000000815250600a01838054600181600116156101000203166002900480156121ec5780601f106121ca5761010080835404028352918201916121ec565b820191906000526020600020905b8154815290600101906020018083116121d8575b5050807f222c200000000000000000000000000000000000000000000000000000000000815250600301807f226d697363223a22000000000000000000000000000000000000000000000000815250600801828054600181600116156101000203166002900480156122955780601f10612273576101008083540402835291820191612295565b820191906000526020600020905b815481529060010190602001808311612281575b5050807f2220000000000000000000000000000000000000000000000000000000000000815250600201807f207d000000000000000000000000000000000000000000000000000000000000815250600201995050505050505050505060405160208183030381529060405291505092915050565b6000816040516020018082805190602001908083835b602083106123435780518252602082019150602081019050602083039250612320565b6001836020036101000a03801982511681845116808217855250505050505090500191505060405160208183030381529060405280519060200120836040516020018082805190602001908083835b602083106123b55780518252602082019150602081019050602083039250612392565b6001836020036101000a0380198251168184511680821785525050505050509050019150506040516020818303038152906040528051906020012014905092915050565b60606000821415612441576040518060400160405280600181526020017f30000000000000000000000000000000000000000000000000000000000000008152509050612521565b600082905060005b6000821461246b578080600101915050600a828161246357fe5b049150612449565b6060816040519080825280601f01601f1916602001820160405280156124a05781602001600182028038833980820191505090505b50905060006001830390505b6000861461251957600a86816124be57fe5b0660300160f81b828280600190039350815181106124d857fe5b60200101907effffffffffffffffffffffffffffffffffffffffffffffffffffffffffffff1916908160001a905350600a868161251157fe5b0495506124ac565b819450505050505b919050565b828054600181600116156101000203166002900490600052602060002090601f016020900481019282601f1061256757805160ff1916838001178555612595565b82800160010185558215612595579182015b82811115612594578251825591602001919060010190612579565b5b5090506125a291906126c1565b5090565b6040518061012001604052806000815260200160008152602001606081526020016060815260200160008152602001606081526020016060815260200160608152602001606081525090565b828054600181600116156101000203166002900490600052602060002090601f016020900481019282601f1061262b5780548555612668565b8280016001018555821561266857600052602060002091601f016020900482015b8281111561266757825482559160010191906001019061264c565b5b50905061267591906126c1565b5090565b50805460018160011615610100020316600290046000825580601f1061269f57506126be565b601f0160209004906000526020600020908101906126bd91906126c1565b5b50565b6126e391905b808211156126df5760008160009055506001016126c7565b5090565b9056fea265627a7a723158205728b4c043aa1ca30d723db1fe4f27c9ef43e066ff72ea9d55f49dcfc60fda8a64736f6c63430005100032",
  "source": "// SPDX-License-Identifier: GPL-3.0\npragma solidity ^0.5.0;\n/**\n * @title Playable List v1.3\n * @dev Greyson Latinwo Jones\n */\n\ncontract PlayableList\n{\n    //logs the song added and its playlist\n    event playlistAltered(\n        address playlistID,\n        uint songID,\n        uint weight,\n        uint entryCost,\n        string trackURI\n    );\n    event Print(string data);\n    event Print(address data);\n    event Print(uint data);\n    \n    //song struct\n    struct Song \n    {\n        uint songID;\n        uint weight;\n        string albumURI;\n        string albumImage;\n        uint trackIndex;\n        string trackURI;\n        string trackName;\n        string artist;\n        string misc;\n    }\n    \n    struct playlist\n    {\n        uint entryCost;\n        Song[] List;\n    }\n\n    //mapping(address => Song[]) private playlists;\n    //mapping(address => uint) private entryCosts;\n    mapping(address => playlist) private playlistDict;\n    address payable dev = msg.sender;\n    string public version = '0.2';\n    \n    function setEntryCost() public payable {\n        if(playlistDict[msg.sender].entryCost < msg.value)\n            dev.transfer(msg.value);\n        playlistDict[msg.sender].entryCost = msg.value;\n    }\n    \n    function getEntryCost(address listID) public view returns(uint){\n        return playlistDict[listID].entryCost;\n    }\n    \n    //adds song to the list\n    function AddSong(string memory albumURI, string memory albumImage, uint trackIndex, string memory trackURI, string memory trackName, string memory artist, string memory misc, address payable listID) public payable {\n        require(!StringEqual(trackURI, \"\"));\n        require(trackIndex != 0);\n        require(listID != address(0));\n        require(msg.value >= playlistDict[msg.sender].entryCost);\n        Song[] storage playlistList = playlistDict[listID].List;\n        uint entryCost = playlistDict[listID].entryCost;\n        playlistList.push(Song(playlistList.length+1, msg.value, albumURI, albumImage, trackIndex, trackURI, trackName, artist, misc));\n        //payment logic\n        if(msg.value > 0){\n            uint money = msg.value;\n            uint playlistOwnerPayment = entryCost;\n            money -= entryCost;\n            playlistOwnerPayment += (money / 2);\n            if(playlistOwnerPayment > 0)\n                listID.transfer(playlistOwnerPayment);\n            if(msg.value - playlistOwnerPayment > 0)\n                dev.transfer(msg.value - playlistOwnerPayment);\n        }\n        emit playlistAltered(listID, playlistList.length+1, msg.value, playlistDict[listID].entryCost, trackURI);\n    }\n    \n    function updateWeight(address payable listID, uint SongID) public payable{\n        require(listID != address(0));\n        require(SongID != 0);\n        if(playlistDict[listID].List[SongID-1].songID != 0){\n            playlistDict[listID].List[SongID-1].weight += msg.value;\n        }\n    }\n    \n    //gets song at given playlist index and song index\n    function Get(address listID, uint givenSongID) view public returns(string memory) {\n        Song storage currSong = playlistDict[listID].List[givenSongID-1];\n        return string(abi.encodePacked(\n            '{ ',\n            '\"songID\":',uint2str(currSong.songID),\", \",\n            '\"weight\":',uint2str(currSong.weight),\", \",\n            '\"albumURI\":\"',currSong.albumURI,'\", ',\n            '\"albumImage\":\"',currSong.albumImage,'\", ',\n            '\"trackIndex\":',uint2str(currSong.trackIndex),', ',\n            '\"trackURI\":\"',currSong.trackURI,'\", ',\n            '\"trackName\":\"',currSong.trackName,'\", ',\n            '\"artist\":\"',currSong.artist,'\", ',\n            '\"misc\":\"',currSong.misc,'\" ',\n            ' }')\n        );\n    }\n\n    function GetAll(address listID) view public returns(string memory){\n        string memory songs = \"[\";\n        for(uint i = 1; i <= playlistDict[listID].List.length; i++){\n            if(i == playlistDict[listID].List.length){\n                songs = string(abi.encodePacked(songs, Get(listID, i)));\n            }else{\n                songs = string(abi.encodePacked(songs, Get(listID, i), \", \"));\n            }\n        }\n        songs = string(abi.encodePacked(songs, \"]\"));\n        return songs;\n    }\n    \n    //removes song at given index from list\n    function Remove(address payable listID, uint givenSongID) public payable {\n        require(listID != address(0));\n        uint arrIdx = givenSongID-1;\n        Song memory song2Remove = playlistDict[listID].List[arrIdx];\n        Song[] storage playlistList = playlistDict[listID].List;\n        for(uint i = arrIdx; i < playlistList.length-1; i++){\n            playlistList[i] = playlistList[i+1];\n            playlistList[i].songID = i+1;\n        }\n        \n        playlistList.pop();\n        if(song2Remove.weight <= msg.value){\n            uint money = msg.value;\n            uint entryCost = playlistDict[listID].entryCost;\n            uint playlistOwnerPayment = entryCost;\n            money -= entryCost;\n            playlistOwnerPayment += (money / 2);\n            if(playlistOwnerPayment > 0)\n                listID.transfer(playlistOwnerPayment);\n            if(msg.value - playlistOwnerPayment > 0)\n                dev.transfer(msg.value - playlistOwnerPayment);\n        }\n        emit playlistAltered(listID, playlistList.length+1, msg.value, playlistDict[listID].entryCost, song2Remove.trackURI);\n    }\n    \n    //check if 2 strings are equal\n    function StringEqual(string memory a, string memory b) pure internal returns(bool) {\n        return (keccak256(abi.encodePacked((a))) == keccak256(abi.encodePacked((b))));\n    }\n    \n    function uint2str(uint _i) internal pure returns (string memory _uintAsString) {\n        if (_i == 0) {\n            return \"0\";\n        }\n        uint j = _i;\n        uint len;\n        while (j != 0) {\n            len++;\n            j /= 10;\n        }\n        bytes memory bstr = new bytes(len);\n        uint k = len - 1;\n        while (_i != 0) {\n            bstr[k--] = byte(uint8(48 + _i % 10));\n            _i /= 10;\n        }\n        return string(bstr);\n    }\n}",
  "sourcePath": "/home/lmao/Documents/Github/PlayableList/frontend/contracts/PlayableList.sol",
  "compiler": {
    "name": "solc",
    "version": "0.5.16+commit.9c3226ce.Emscripten.clang"
  },
  "schemaVersion": "3.3.2",
  "updatedAt": "2020-12-09T21:56:44.617Z",
  "networkType": "ethereum",
  "devdoc": {
    "details": "Greyson Latinwo Jones",
    "methods": {},
    "title": "Playable List v1.3"
  },
  "userdoc": {
    "methods": {}
  }
}